:10000000000C001071000000000000000000000063
:1000100000000000000000000000000000000000E0
:1000200073B5802010220F4D00242E000E4B0002CD
:100030001958114319500D495858104358500194FC
:100040000198A84203DC019801300190F8E7585864
:100050009043585001940199B142ECDC019901316F
:100060000191F8E7DF93040000000150FC3F00001D
:10007000002270B514000F490F4B5B1A9B08013327
:100080009B00101D984203D08A1814600200F8E704
:1000900000220A490A4B0B4C5B1A9B0801339B0058
:1000A000101D984203D0A5588D500200F8E7FFF7C5
:1000B000B7FFFEE7000C0010000C0010000C001051
:0800C000000C0010C800000054
:040000030000007188
:00000001FF
